{
  "contractName": "Counter",
  "abi": [
    {
      "inputs": [],
      "name": "increment",
      "outputs": [],
      "stateMutability": "nonpayable",
      "type": "function"
    },
    {
      "inputs": [],
      "name": "getCount",
      "outputs": [
        {
          "internalType": "int256",
          "name": "",
          "type": "int256"
        }
      ],
      "stateMutability": "view",
      "type": "function",
      "constant": true
    }
  ],
  "bytecode": "0x608060405234801561001057600080fd5b5060ca8061001f6000396000f3fe6080604052348015600f57600080fd5b506004361060325760003560e01c8063a87d942c146037578063d09de08a14604c575b600080fd5b60005460405190815260200160405180910390f35b60526054565b005b6000805490806061836068565b9190505550565b60006001600160ff1b018201608d57634e487b7160e01b600052601160045260246000fd5b506001019056fea2646970667358221220d29fd8e0b194097e9c12f643ca8d63ecae02e47a1e796ea1ed518d2f7a13ed7064736f6c634300080d0033",
  "immutableReferences": {},
  "source": "// SPDX-License-Identifier: GPL-3.0\r\npragma solidity ^0.8.0;\r\n\r\ncontract Counter {\r\n\r\n    int count;\r\n\r\n    function increment() public {\r\n        count ++;\r\n    }\r\n\r\n    function getCount() public view returns (int) {\r\n        return count;\r\n    }\r\n\r\n}",
  "sourcePath": "C:\\Users\\Seb\\Documents\\homecode\\webpack\\contracts\\Counter.sol",
  "compiler": {
    "name": "solc",
    "version": "0.8.13+commit.abaa5c0e.Emscripten.clang"
  },
  "schemaVersion": "3.4.7",
  "updatedAt": "2022-04-28T08:57:58.568Z",
  "networkType": "ethereum",
  "devdoc": {
    "kind": "dev",
    "methods": {},
    "version": 1
  },
  "userdoc": {
    "kind": "user",
    "methods": {},
    "version": 1
  }
}