{
  "contractName": "TodoList",
  "abi": [
    {
      "inputs": [],
      "stateMutability": "nonpayable",
      "type": "constructor"
    },
    {
      "anonymous": false,
      "inputs": [
        {
          "indexed": false,
          "internalType": "uint256",
          "name": "id",
          "type": "uint256"
        },
        {
          "indexed": false,
          "internalType": "bool",
          "name": "completed",
          "type": "bool"
        }
      ],
      "name": "TaskCompleted",
      "type": "event"
    },
    {
      "anonymous": false,
      "inputs": [
        {
          "indexed": false,
          "internalType": "uint256",
          "name": "id",
          "type": "uint256"
        },
        {
          "indexed": false,
          "internalType": "string",
          "name": "content",
          "type": "string"
        },
        {
          "indexed": false,
          "internalType": "bool",
          "name": "completed",
          "type": "bool"
        }
      ],
      "name": "TaskCreated",
      "type": "event"
    },
    {
      "inputs": [
        {
          "internalType": "address",
          "name": "",
          "type": "address"
        },
        {
          "internalType": "uint256",
          "name": "",
          "type": "uint256"
        }
      ],
      "name": "tasks",
      "outputs": [
        {
          "internalType": "uint256",
          "name": "id",
          "type": "uint256"
        },
        {
          "internalType": "string",
          "name": "content",
          "type": "string"
        },
        {
          "internalType": "bool",
          "name": "completed",
          "type": "bool"
        }
      ],
      "stateMutability": "view",
      "type": "function",
      "constant": true
    },
    {
      "inputs": [
        {
          "internalType": "address",
          "name": "",
          "type": "address"
        }
      ],
      "name": "tasksCount",
      "outputs": [
        {
          "internalType": "uint256",
          "name": "",
          "type": "uint256"
        }
      ],
      "stateMutability": "view",
      "type": "function",
      "constant": true
    },
    {
      "inputs": [
        {
          "internalType": "string",
          "name": "_content",
          "type": "string"
        }
      ],
      "name": "createTask",
      "outputs": [],
      "stateMutability": "nonpayable",
      "type": "function"
    },
    {
      "inputs": [
        {
          "internalType": "uint256",
          "name": "_id",
          "type": "uint256"
        }
      ],
      "name": "toggleCompleted",
      "outputs": [],
      "stateMutability": "nonpayable",
      "type": "function"
    }
  ],
  "bytecode": "0x608060405234801561001057600080fd5b5060408051808201909152600b81526a12195b1b1bc81ddbdc9b1960aa1b602082015261003c90610041565b610275565b336000818152600160208181526040808420548151606081018352818152808401888152818401879052968652858452828620828752845291909420815181559451805194959194919361009b9390850192910190610116565b50604091820151600291909101805460ff1916911515919091179055517f05d0fb833127fc08168556d0e7ca9554fc3f6bc843b3b7d2bf1c35aea6bab660906100ea90839085906000906101af565b60405180910390a133600090815260016020526040812080549161010d83610214565b91905055505050565b8280546101229061023b565b90600052602060002090601f016020900481019282610144576000855561018a565b82601f1061015d57805160ff191683800117855561018a565b8280016001018555821561018a579182015b8281111561018a57825182559160200191906001019061016f565b5061019692915061019a565b5090565b5b80821115610196576000815560010161019b565b83815260006020606081840152845180606085015260005b818110156101e3578681018301518582016080015282016101c7565b818111156101f5576000608083870101525b5093151560408401525050601f91909101601f19160160800192915050565b60006001820161023457634e487b7160e01b600052601160045260246000fd5b5060010190565b600181811c9082168061024f57607f821691505b60208210810361026f57634e487b7160e01b600052602260045260246000fd5b50919050565b6106a4806102846000396000f3fe608060405234801561001057600080fd5b506004361061004c5760003560e01c8063111002aa14610051578063455f5024146100665780637149d2e4146100795780637b219c39146100a4575b600080fd5b61006461005f366004610476565b6100d2565b005b610064610074366004610527565b6101a7565b61008c61008736600461055c565b610311565b60405161009b93929190610586565b60405180910390f35b6100c46100b23660046105eb565b60016020526000908152604090205481565b60405190815260200161009b565b336000818152600160208181526040808420548151606081018352818152808401888152818401879052968652858452828620828752845291909420815181559451805194959194919361012c93908501929101906103c7565b50604091820151600291909101805460ff1916911515919091179055517f05d0fb833127fc08168556d0e7ca9554fc3f6bc843b3b7d2bf1c35aea6bab6609061017b9083908590600090610586565b60405180910390a133600090815260016020526040812080549161019e8361060d565b91905055505050565b3360009081526020818152604080832084845282528083208151606081019092528054825260018101805492939192918401916101e390610634565b80601f016020809104026020016040519081016040528092919081815260200182805461020f90610634565b801561025c5780601f106102315761010080835404028352916020019161025c565b820191906000526020600020905b81548152906001019060200180831161023f57829003601f168201915b50505091835250506002919091015460ff1615156020918201526040808301805115905233600090815280835281812086825283522082518155828201518051939450849391926102b5926001850192909101906103c7565b50604091820151600291909101805460ff191691151591909117905581810151815184815290151560208201527fe21fa966ca5cd02748c0752352d18c48165e61cb55b4c29cccf924b5a95fcff1910160405180910390a15050565b60006020818152928152604080822090935290815220805460018201805491929161033b90610634565b80601f016020809104026020016040519081016040528092919081815260200182805461036790610634565b80156103b45780601f10610389576101008083540402835291602001916103b4565b820191906000526020600020905b81548152906001019060200180831161039757829003601f168201915b5050506002909301549192505060ff1683565b8280546103d390610634565b90600052602060002090601f0160209004810192826103f5576000855561043b565b82601f1061040e57805160ff191683800117855561043b565b8280016001018555821561043b579182015b8281111561043b578251825591602001919060010190610420565b5061044792915061044b565b5090565b5b80821115610447576000815560010161044c565b634e487b7160e01b600052604160045260246000fd5b60006020828403121561048857600080fd5b813567ffffffffffffffff808211156104a057600080fd5b818401915084601f8301126104b457600080fd5b8135818111156104c6576104c6610460565b604051601f8201601f19908116603f011681019083821181831017156104ee576104ee610460565b8160405282815287602084870101111561050757600080fd5b826020860160208301376000928101602001929092525095945050505050565b60006020828403121561053957600080fd5b5035919050565b80356001600160a01b038116811461055757600080fd5b919050565b6000806040838503121561056f57600080fd5b61057883610540565b946020939093013593505050565b83815260006020606081840152845180606085015260005b818110156105ba5786810183015185820160800152820161059e565b818111156105cc576000608083870101525b5093151560408401525050601f91909101601f19160160800192915050565b6000602082840312156105fd57600080fd5b61060682610540565b9392505050565b60006001820161062d57634e487b7160e01b600052601160045260246000fd5b5060010190565b600181811c9082168061064857607f821691505b60208210810361066857634e487b7160e01b600052602260045260246000fd5b5091905056fea264697066735822122063e6f9d39b53a3a7b592fa50497842bacd49c99a427b91dc99bd28b65a4540b464736f6c634300080d0033",
  "immutableReferences": {},
  "source": "pragma solidity ^0.8.0;\r\n\r\ncontract TodoList{\r\n   struct Task {\r\n       uint id;\r\n       string content;\r\n       bool completed;\r\n   }\r\n\r\n   event TaskCreated (\r\n       uint id,\r\n       string content,\r\n       bool completed\r\n   );\r\n\r\n   event TaskCompleted (\r\n        uint id,\r\n        bool completed\r\n   );\r\n\r\n   mapping(address => mapping(uint => Task)) public tasks;\r\n   mapping(address => uint) public tasksCount;\r\n\r\n   constructor() {\r\n       createTask(\"Hello world\");\r\n   }\r\n\r\n   function createTask(string memory _content) public {\r\n        uint taskCount = tasksCount[msg.sender];\r\n        tasks[msg.sender][taskCount] = Task(taskCount, _content, false);\r\n        emit TaskCreated(taskCount, _content, false);\r\n        tasksCount[msg.sender]++;\r\n    }\r\n\r\n    function toggleCompleted(uint _id) public{\r\n       Task memory task = tasks[msg.sender][_id];\r\n       task.completed = !task.completed;\r\n       tasks[msg.sender][_id] = task;\r\n       emit TaskCompleted(_id, task.completed);\r\n     \r\n   }\r\n\r\n\r\n}",
  "sourcePath": "C:\\Users\\Seb\\Documents\\homecode\\webpack\\contracts\\TodoList.sol",
  "compiler": {
    "name": "solc",
    "version": "0.8.13+commit.abaa5c0e.Emscripten.clang"
  },
  "schemaVersion": "3.4.7",
  "updatedAt": "2022-04-28T08:57:58.564Z",
  "networkType": "ethereum",
  "devdoc": {
    "kind": "dev",
    "methods": {},
    "version": 1
  },
  "userdoc": {
    "kind": "user",
    "methods": {},
    "version": 1
  }
}